{
  "contractName": "functionalities",
  "abi": [
    {
      "constant": true,
      "inputs": [
        {
          "internalType": "uint256",
          "name": "",
          "type": "uint256"
        }
      ],
      "name": "Blacklist",
      "outputs": [
        {
          "internalType": "uint256",
          "name": "_id",
          "type": "uint256"
        },
        {
          "internalType": "string",
          "name": "_firstName",
          "type": "string"
        },
        {
          "internalType": "string",
          "name": "_lastName",
          "type": "string"
        },
        {
          "internalType": "string",
          "name": "_location",
          "type": "string"
        }
      ],
      "payable": false,
      "stateMutability": "view",
      "type": "function"
    },
    {
      "constant": true,
      "inputs": [],
      "name": "Count",
      "outputs": [
        {
          "internalType": "uint256",
          "name": "",
          "type": "uint256"
        }
      ],
      "payable": false,
      "stateMutability": "view",
      "type": "function"
    },
    {
      "constant": true,
      "inputs": [
        {
          "internalType": "uint256",
          "name": "",
          "type": "uint256"
        }
      ],
      "name": "Database",
      "outputs": [
        {
          "internalType": "uint256",
          "name": "_id",
          "type": "uint256"
        },
        {
          "internalType": "uint256",
          "name": "_call_duration",
          "type": "uint256"
        },
        {
          "internalType": "string",
          "name": "_firstName",
          "type": "string"
        },
        {
          "internalType": "string",
          "name": "_lastName",
          "type": "string"
        },
        {
          "internalType": "string",
          "name": "_location",
          "type": "string"
        },
        {
          "internalType": "uint256",
          "name": "_flag",
          "type": "uint256"
        }
      ],
      "payable": false,
      "stateMutability": "view",
      "type": "function"
    },
    {
      "constant": false,
      "inputs": [
        {
          "internalType": "string",
          "name": "_firstName",
          "type": "string"
        },
        {
          "internalType": "string",
          "name": "_lastName",
          "type": "string"
        },
        {
          "internalType": "string",
          "name": "_location",
          "type": "string"
        }
      ],
      "name": "addPerson",
      "outputs": [],
      "payable": false,
      "stateMutability": "nonpayable",
      "type": "function"
    },
    {
      "constant": false,
      "inputs": [
        {
          "internalType": "uint256",
          "name": "_id",
          "type": "uint256"
        }
      ],
      "name": "incrementFlag",
      "outputs": [],
      "payable": false,
      "stateMutability": "nonpayable",
      "type": "function"
    }
  ],
  "bytecode": "0x608060405260008055600060025533600360006101000a81548173ffffffffffffffffffffffffffffffffffffffff021916908373ffffffffffffffffffffffffffffffffffffffff160217905550636064b14e600481905550611346806100686000396000f3fe608060405234801561001057600080fd5b50600436106100575760003560e01c80630671cc3c1461005c57806393a8333e14610245578063a1adee5214610263578063ca48d771146103e9578063dba462f114610417575b600080fd5b6102436004803603606081101561007257600080fd5b810190808035906020019064010000000081111561008f57600080fd5b8201836020820111156100a157600080fd5b803590602001918460018302840111640100000000831117156100c357600080fd5b91908080601f016020809104026020016040519081016040528093929190818152602001838380828437600081840152601f19601f8201169050808301925050505050505091929192908035906020019064010000000081111561012657600080fd5b82018360208201111561013857600080fd5b8035906020019184600183028401116401000000008311171561015a57600080fd5b91908080601f016020809104026020016040519081016040528093929190818152602001838380828437600081840152601f19601f820116905080830192505050505050509192919290803590602001906401000000008111156101bd57600080fd5b8201836020820111156101cf57600080fd5b803590602001918460018302840111640100000000831117156101f157600080fd5b91908080601f016020809104026020016040519081016040528093929190818152602001838380828437600081840152601f19601f8201169050808301925050505050505091929192905050506105ab565b005b61024d61075b565b6040518082815260200191505060405180910390f35b61028f6004803603602081101561027957600080fd5b8101908080359060200190929190505050610761565b60405180858152602001806020018060200180602001848103845287818151815260200191508051906020019080838360005b838110156102dd5780820151818401526020810190506102c2565b50505050905090810190601f16801561030a5780820380516001836020036101000a031916815260200191505b50848103835286818151815260200191508051906020019080838360005b83811015610343578082015181840152602081019050610328565b50505050905090810190601f1680156103705780820380516001836020036101000a031916815260200191505b50848103825285818151815260200191508051906020019080838360005b838110156103a957808201518184015260208101905061038e565b50505050905090810190601f1680156103d65780820380516001836020036101000a031916815260200191505b5097505050505050505060405180910390f35b610415600480360360208110156103ff57600080fd5b8101908080359060200190929190505050610959565b005b6104436004803603602081101561042d57600080fd5b8101908080359060200190929190505050610cfe565b60405180878152602001868152602001806020018060200180602001858152602001848103845288818151815260200191508051906020019080838360005b8381101561049d578082015181840152602081019050610482565b50505050905090810190601f1680156104ca5780820380516001836020036101000a031916815260200191505b50848103835287818151815260200191508051906020019080838360005b838110156105035780820151818401526020810190506104e8565b50505050905090810190601f1680156105305780820380516001836020036101000a031916815260200191505b50848103825286818151815260200191508051906020019080838360005b8381101561056957808201518184015260208101905061054e565b50505050905090810190601f1680156105965780820380516001836020036101000a031916815260200191505b50995050505050505050505060405180910390f35b600360009054906101000a900473ffffffffffffffffffffffffffffffffffffffff1673ffffffffffffffffffffffffffffffffffffffff163373ffffffffffffffffffffffffffffffffffffffff161461066e576040517f08c379a00000000000000000000000000000000000000000000000000000000081526004018080602001828103825260138152602001807f43616c6c6572206973206e6f74206f776e65720000000000000000000000000081525060200191505060405180910390fd5b60045442101561067d57600080fd5b6004544203600281905550600160008082825401925050819055506040518060c0016040528060005481526020016002548152602001848152602001838152602001828152602001600081525060016000805481526020019081526020016000206000820151816000015560208201518160010155604082015181600201908051906020019061070e92919061116e565b50606082015181600301908051906020019061072b92919061116e565b50608082015181600401908051906020019061074892919061116e565b5060a08201518160050155905050505050565b60005481565b600a602052806000526040600020600091509050806000015490806001018054600181600116156101000203166002900480601f0160208091040260200160405190810160405280929190818152602001828054600181600116156101000203166002900480156108135780601f106107e857610100808354040283529160200191610813565b820191906000526020600020905b8154815290600101906020018083116107f657829003601f168201915b505050505090806002018054600181600116156101000203166002900480601f0160208091040260200160405190810160405280929190818152602001828054600181600116156101000203166002900480156108b15780601f10610886576101008083540402835291602001916108b1565b820191906000526020600020905b81548152906001019060200180831161089457829003601f168201915b505050505090806003018054600181600116156101000203166002900480601f01602080910402602001604051908101604052809291908181526020018280546001816001161561010002031660029004801561094f5780601f106109245761010080835404028352916020019161094f565b820191906000526020600020905b81548152906001019060200180831161093257829003601f168201915b5050505050905084565b6109616111ee565b600160008381526020019081526020016000206040518060c00160405290816000820154815260200160018201548152602001600282018054600181600116156101000203166002900480601f016020809104026020016040519081016040528092919081815260200182805460018160011615610100020316600290048015610a2c5780601f10610a0157610100808354040283529160200191610a2c565b820191906000526020600020905b815481529060010190602001808311610a0f57829003601f168201915b50505050508152602001600382018054600181600116156101000203166002900480601f016020809104026020016040519081016040528092919081815260200182805460018160011615610100020316600290048015610ace5780601f10610aa357610100808354040283529160200191610ace565b820191906000526020600020905b815481529060010190602001808311610ab157829003601f168201915b50505050508152602001600482018054600181600116156101000203166002900480601f016020809104026020016040519081016040528092919081815260200182805460018160011615610100020316600290048015610b705780601f10610b4557610100808354040283529160200191610b70565b820191906000526020600020905b815481529060010190602001808311610b5357829003601f168201915b5050505050815260200160058201548152505090508060a0018051809190600101815250508060a00151600581905550806001600084815260200190815260200160002060008201518160000155602082015181600101556040820151816002019080519060200190610be492919061116e565b506060820151816003019080519060200190610c0192919061116e565b506080820151816004019080519060200190610c1e92919061116e565b5060a0820151816005015590505060036005541115610cfa578060000151600681905550806040015160079080519060200190610c5c929190611224565b50806060015160089080519060200190610c77929190611224565b50806080015160099080519060200190610c92929190611224565b50600160008381526020019081526020016000206000808201600090556001820160009055600282016000610cc791906112a4565b600382016000610cd791906112a4565b600482016000610ce791906112a4565b60058201600090555050610cf9610f02565b5b5050565b6001602052806000526040600020600091509050806000015490806001015490806002018054600181600116156101000203166002900480601f016020809104026020016040519081016040528092919081815260200182805460018160011615610100020316600290048015610db65780601f10610d8b57610100808354040283529160200191610db6565b820191906000526020600020905b815481529060010190602001808311610d9957829003601f168201915b505050505090806003018054600181600116156101000203166002900480601f016020809104026020016040519081016040528092919081815260200182805460018160011615610100020316600290048015610e545780601f10610e2957610100808354040283529160200191610e54565b820191906000526020600020905b815481529060010190602001808311610e3757829003601f168201915b505050505090806004018054600181600116156101000203166002900480601f016020809104026020016040519081016040528092919081815260200182805460018160011615610100020316600290048015610ef25780601f10610ec757610100808354040283529160200191610ef2565b820191906000526020600020905b815481529060010190602001808311610ed557829003601f168201915b5050505050908060050154905086565b6040518060800160405280600654815260200160078054600181600116156101000203166002900480601f016020809104026020016040519081016040528092919081815260200182805460018160011615610100020316600290048015610fab5780601f10610f8057610100808354040283529160200191610fab565b820191906000526020600020905b815481529060010190602001808311610f8e57829003601f168201915b5050505050815260200160088054600181600116156101000203166002900480601f01602080910402602001604051908101604052809291908181526020018280546001816001161561010002031660029004801561104b5780601f106110205761010080835404028352916020019161104b565b820191906000526020600020905b81548152906001019060200180831161102e57829003601f168201915b5050505050815260200160098054600181600116156101000203166002900480601f0160208091040260200160405190810160405280929190818152602001828054600181600116156101000203166002900480156110eb5780601f106110c0576101008083540402835291602001916110eb565b820191906000526020600020905b8154815290600101906020018083116110ce57829003601f168201915b5050505050815250600a6000600654815260200190815260200160002060008201518160000155602082015181600101908051906020019061112e92919061116e565b50604082015181600201908051906020019061114b92919061116e565b50606082015181600301908051906020019061116892919061116e565b50905050565b828054600181600116156101000203166002900490600052602060002090601f016020900481019282601f106111af57805160ff19168380011785556111dd565b828001600101855582156111dd579182015b828111156111dc5782518255916020019190600101906111c1565b5b5090506111ea91906112ec565b5090565b6040518060c001604052806000815260200160008152602001606081526020016060815260200160608152602001600081525090565b828054600181600116156101000203166002900490600052602060002090601f016020900481019282601f1061126557805160ff1916838001178555611293565b82800160010185558215611293579182015b82811115611292578251825591602001919060010190611277565b5b5090506112a091906112ec565b5090565b50805460018160011615610100020316600290046000825580601f106112ca57506112e9565b601f0160209004906000526020600020908101906112e891906112ec565b5b50565b61130e91905b8082111561130a5760008160009055506001016112f2565b5090565b9056fea265627a7a7231582071933763c41ffcefa4ab59280e0d8794c78dacc65f2a4ac354ddf9fe7c4476b964736f6c63430005100032",
  "source": "pragma solidity ^0.5.16;\nimport \"./contract1.sol\";\n\ncontract functionalities is Call_log {\n    uint256 threshold;\n    uint256 temp_id; string temp_firstName; string temp_lastName; string temp_location;\n    \n    function incrementFlag(uint _id) public {\n       Clients memory _client = Database[_id];\n       _client._flag++;\n       threshold = _client._flag;\n       Database[_id] = _client;\n       if (threshold > 3){\n           temp_id = _client._id;\n           temp_firstName = _client._firstName;\n           temp_lastName = _client._lastName;\n           temp_location = _client._location;\n           delete Database[_id];\n           addBlacklist();\n       }\n    }\n    mapping(uint => not_Clients) public Blacklist;\n    struct not_Clients {\n        uint _id;\n        string _firstName;\n        string _lastName;\n        string _location;\n    }\n    \n    function addBlacklist() internal{\n        Blacklist[temp_id] = not_Clients(temp_id,temp_firstName, temp_lastName, temp_location);\n    }\n}",
  "sourcePath": "/Users/aliaryan/Desktop/xyz/contracts/contract2.sol",
  "compiler": {
    "name": "solc",
    "version": "0.5.16+commit.9c3226ce.Emscripten.clang"
  },
  "schemaVersion": "3.3.4",
  "updatedAt": "2021-04-12T17:54:43.458Z",
  "devdoc": {
    "methods": {}
  },
  "userdoc": {
    "methods": {}
  }
}